:100000000C9434000C9426010C9451000C94510073
:100010000C9451000C9451000C9451000C9451001C
:100020000C9451000C9451000C9451000C9451000C
:100030000C9451000C9451000C9451000C945100FC
:100040000C9451000C9451000C9451000C945100EC
:100050000C9451000C9451000C9451000C945100DC
:100060000C9451000C94510011241FBECFEFD8E026
:10007000DEBFCDBF11E0A0E0B1E0E4EFFAE002C0E6
:1000800005900D92AE35B107D9F721E0AEE5B1E0AC
:1000900001C01D92AA3CB207E1F70E9436020C94FF
:1000A00078050C940000CF93DF932D9A8EE091E0B9
:1000B0009F938F930E94B402109260010F900F9053
:1000C000C5E1D1E0809160018330B0F4E09160013E
:1000D000F0E0EF59FE4F80811F928F93DF93CF9313
:1000E0000E94B402809160018F5F809360010F9045
:1000F0000F900F900F90E6CF88E491E00E94CA0223
:1001000095B180E2892785B9DF91CF910895A0E06C
:10011000B0E0EDE8F0E00C948602D82EC62E1092E6
:100120006001CBE1D1E008E211E045E3E42E41E0DB
:10013000F42E80916001833008F061C010925F015D
:1001400080915F018830A0F580916001E0915F01AE
:10015000F0E038E0839FE00DF11D1124EE0FFF1F4A
:10016000EC59FE4F8081918120916001E0915F0107
:10017000F0E038E0239FE00DF11D1124EE0FFF1F8A
:10018000EC56FE4F208131819F938F933F932F93A5
:10019000DF93CF930E94B40280915F018F5F8093C1
:1001A0005F010F900F900F900F900F900F90C8CF9E
:1001B00082E591E00E94CA0280916001D81219C0C4
:1001C000B12CBC1441F01F930F930E94B402B3945E
:1001D0000F900F90F6CF1F92CF921F92DF92FF9257
:1001E000EF920E94B4020F900F900F900F900F901B
:1001F0000F90809160018F5F809360019ACF82E5BC
:1002000091E00E94CA0210925E0180915E018831E5
:10021000C0F4E0915E01F0E0EE0FFF1FEC56FE4FE0
:1002200011821082E0915E01F0E0EE0FFF1FEC59A9
:10023000FE4F1182108280915E018F5F80935E017C
:10024000E4CFCDB7DEB7E9E00C94A2021F920F9283
:100250000FB60F9211242F933F934F935F936F9399
:100260007F938F939F93AF93BF93EF93FF93F894F4
:1002700010928500109284004A9B07C080918400F0
:100280009091850088389341B8F3809184009091D3
:1002900085008438934008F4BAC08091840090911E
:1002A00085008D3D954008F0B2C0109285001092F7
:1002B00084004A9907C08091840090918500883815
:1002C0009341B8F3809184009091850088349D40DB
:1002D00008F49DC0809184009091850089389341F5
:1002E00008F095C01092600141E050E080916001FB
:1002F000833008F08AC0E0916001F0E0EF59FE4FD2
:10030000108210925F0180915F01883008F077C001
:100310008091600120915F0198E0899F200D112458
:1003200010928500109284004A9B07C0809184003F
:1003300090918500803A9F40B8F3822F90E06091C1
:10034000840070918500880F991FFC01EC56FE4FC8
:1003500071836083608171816438734008F442C0A6
:1003600060817181613A7F40E8F56091840070910D
:100370008500603D774088F060915F01E091600109
:10038000F0E0EF59FE4F3081DA0102C0AA0FBB1F27
:100390006A95E2F7BD01632B60831092850010928D
:1003A00084004A9907C06091840070918500603A8A
:1003B0007F40B8F36091840070918500FC01EC5996
:1003C000FE4F718360832731A0F4DC01AC56BE4F31
:1003D0008D919C918438934028F080819181813A5D
:1003E0009F4038F060915F01809160010E9487001A
:1003F0000EC080915F018F5F80935F0184CF8091F9
:1004000060018F5F8093600171CF0E945300FF9164
:10041000EF91BF91AF919F918F917F916F915F917C
:100420004F913F912F910F900FBE0F901F901895F5
:100430008091C00087FFFCCF8091C6000895909105
:10044000C00095FFFCCF8093C60008959093C5002F
:100450008093C40088E18093C100E4ECF1E080E087
:1004600091E09183808393838283089583E390E076
:100470000E94260252985A98809169008360809366
:100480006900E89A80918000806C80938000809160
:10049000810082608093810080E284B910926001C3
:1004A00080916001853060F4E0916001F0E0EF59E7
:1004B000FE4F1082809160018F5F80936001F0CFCA
:1004C0008BE491E00E94CA027894C0E004E511E058
:1004D0002FEF83ED90E3215080409040E1F700C082
:1004E00000001F92CF931F930F930E94B402CF5F1F
:1004F0000F900F900F900F90EBCF2F923F924F9253
:100500005F926F927F928F929F92AF92BF92CF92A3
:10051000DF92EF92FF920F931F93CF93DF93CDB7AC
:10052000DEB7CA1BDB0B0FB6F894DEBF0FBECDBF24
:1005300009942A88398848885F846E847D848C84F5
:100540009B84AA84B984C884DF80EE80FD800C81FE
:100550001B81AA81B981CE0FD11D0FB6F894DEBFE1
:100560000FBECDBFED010895A0E0B0E0EAEBF2E0F0
:100570000C948D02AE014B5F5F4FFA016191719156
:10058000AF018091C6019091C7010E94FA02E2E09A
:100590000C94A9020F931F93CF93DF93E091C601B0
:1005A000F091C701238121FF1BC08C01D0E0C0E086
:1005B000F80181918F016091C6017091C701DB0143
:1005C0001896ED91FC911997882331F00995892BA4
:1005D00079F3DFEFCFEFECCF8AE00995892B19F0A3
:1005E0008FEF9FEF02C08D2F9C2FDF91CF911F9136
:1005F0000F910895ACE0B0E0E0E0F3E00C947D02F0
:100600007C016B018A01FC0117821682838181FFC4
:10061000BDC1CE0101964C01F7019381F60193FD16
:10062000859193FF81916F01882309F4ABC18532D5
:1006300039F493FD859193FF81916F01853229F4FF
:10064000B70190E00E94E204E7CF512C312C20E06A
:100650002032A0F48B3269F030F4803259F08332CA
:1006600069F420612CC08D3239F0803339F4216077
:1006700026C02260246023C0286021C027FD27C037
:1006800030ED380F3A3078F426FF06C0FAE05F9E6E
:10069000300D1124532E13C08AE0389E300D1124E2
:1006A000332E20620CC08E3221F426FD6BC12064F3
:1006B00006C08C3611F4206802C0883641F4F60179
:1006C00093FD859193FF81916F018111C1CF982F87
:1006D0009F7D9554933028F40C5F1F4FFFE3F983FF
:1006E0000DC0833631F0833771F0833509F05BC07C
:1006F00022C0F801808189830E5F1F4F44244394F8
:10070000512C540115C03801F2E06F0E711CF80134
:10071000A080B18026FF03C0652D70E002C06FEF9E
:100720007FEFC5012C870E94D7042C0183012C8503
:100730002F77222E17C03801F2E06F0E711CF801DE
:10074000A080B18026FF03C0652D70E002C06FEF6E
:100750007FEFC5012C870E94CC042C012C852068DA
:10076000222E830123FC1BC0832D90E048165906DE
:10077000B0F4B70180E290E00E94E2043A94F4CF32
:10078000F50127FC859127FE81915F01B70190E07B
:100790000E94E20431103A94F1E04F1A51084114DA
:1007A000510471F7E5C0843611F0893639F5F80146
:1007B00027FF07C060817181828193810C5F1F4F89
:1007C00008C060817181072E000C880B990B0E5FA9
:1007D0001F4F2F76722E97FF09C0909580957095C8
:1007E00061957F4F8F4F9F4F2068722E2AE030E037
:1007F000A4010E941A05A82EA81844C0853729F420
:100800002F7EB22E2AE030E025C0F22FF97FBF2ED6
:100810008F36C1F018F4883579F0B4C0803719F0FC
:10082000883721F0AFC02F2F2061B22EB4FE0DC04B
:100830008B2D8460B82E09C024FF0AC09F2F9660BC
:10084000B92E06C028E030E005C020E130E002C04B
:1008500020E132E0F801B7FE07C06081718182813A
:1008600093810C5F1F4F06C06081718180E090E032
:100870000E5F1F4FA4010E941A05A82EA818FB2D79
:10088000FF777F2E76FE0BC0372D3E7FA51450F4E8
:1008900074FE0AC072FC08C0372D3E7E05C0BA2C1B
:1008A000372D03C0BA2C01C0B52C34FF0DC0FE019A
:1008B000EA0DF11D8081803311F4397E09C032FFC9
:1008C00006C0B394B39404C0832F867809F0B39420
:1008D00033FD13C030FF06C05A2CB31418F4530C68
:1008E0005B18B32CB31468F4B70180E290E03C8746
:1008F0000E94E204B3943C85F5CFB31410F43B1886
:1009000001C0312C34FF12C0B70180E390E03C8776
:100910000E94E2043C8532FF17C031FD03C088E726
:1009200090E002C088E590E0B7010CC0832F867884
:1009300059F031FF02C08BE201C080E237FD8DE249
:10094000B70190E00E94E204A51438F4B70180E3F7
:1009500090E00E94E2045A94F7CFAA94F401EA0DC1
:10096000F11D8081B70190E00E94E204A110F5CF53
:10097000332009F451CEB70180E290E00E94E204F6
:100980003A94F6CFF7018681978102C08FEF9FEFEF
:100990002C96E2E10C949902FC01059061507040A4
:1009A0000110D8F7809590958E0F9F1F0895FC0138
:1009B0006150704001900110D8F7809590958E0F8E
:1009C0009F1F08950F931F93CF93DF93FB01238104
:1009D00021FD03C08FEF9FEF28C022FF16C0468184
:1009E0005781248135814217530744F4A081B18196
:1009F0009D012F5F3F4F318320838C932681378168
:100A00002F5F3F4F3783268310C0EB01092F182F2C
:100A10000084F185E02D0995892BE1F68E819F8177
:100A200001969F838E83812F902FDF91CF911F910D
:100A30000F910895FA01AA27283051F1203181F150
:100A4000E8946F936E7F6E5F7F4F8F4F9F4FAF4FD6
:100A5000B1E03ED0B4E03CD0670F781F891F9A1FE9
:100A6000A11D680F791F8A1F911DA11D6A0F711D9D
:100A7000811D911DA11D20D009F468943F912AE0A9
:100A8000269F11243019305D3193DEF6CF01089591
:100A9000462F4770405D4193B3E00FD0C9F7F6CFC2
:100AA000462F4F70405D4A3318F0495D31FD40528A
:100AB000419302D0A9F7EACFB4E0A6959795879520
:100AC00077956795BA95C9F70097610571050895FF
:100AD0009B01AC010A2E06945795479537952795AB
:100AE000BA95C9F7620F731F841F951FA01D089543
:040AF000F894FFCFA8
:100AF40000000003000000001F0218020000636DE4
:100B040064203D20002530327820002F25303464C5
:100B14005C253034642F2000202020202020202039
:100B240020202020005E5E5E5E5E5E5E5E5E5E5E37
:100B3400202825642C2564290D0A007374617274BD
:0E0B440065640D0025643D3D3D3D3D0D0A00FC
:00000001FF
